:020000040800F2
:10000000080E0020D100000855350008ED29000831
:1000100000000000000000000000000000000000E0
:10002000000000000000000000000000D3350008C0
:100030000000000000000000D1350008D5350008A0
:10004000E3000008E3000008E3000008E300000804
:10005000E3000008E3000008E3000008E3000008F4
:10006000E3000008810A0008E3000008E30000083C
:10007000E3000008E3000008E3000008DD360008A4
:10008000E3000008E3000008E3000008E3000008C4
:10009000E3000008E3000008E3000008F12900087D
:1000A000E3000008E3000008E3000008E3000008A4
:1000B000E3000008E3000008E30000080348854669
:1000C00000F0E6FB0048004725460008080E002027
:1000D0000448804704480047FEE7FEE7FEE7FEE7E6
:1000E000FEE7FEE765360008BD00000830B50B46A8
:1000F000014600202022012409E00D46D5409D4202
:1001000005D31D469540491B254695404019154687
:10011000521E002DF1DC30BD10B5202A04DB08464C
:10012000203AD040002110BD0B46D340D0402024BF
:10013000A21A91400843194610BD03460B439B0782
:1001400003D009E008C9121F08C0042AFAD203E04C
:100150000B780370401C491C521EF9D27047D2B272
:1001600001E00270401C491EFBD270470022F6E7F6
:1001700010B513460A4604461946FFF7F0FF20461D
:1001800010BDF8B502464A40D40F42004B00520859
:100190005B089A4202D20246084611464A0023D022
:1001A000C30D4A00DDB2120EAD1A202D35DA490218
:1001B0000126490AF6058A19002C00D05242202156
:1001C0004F1B1146B9402A411018C20D9A4221D046
:1001D000002C17D0012D08DCDA05801AD20F801907
:1001E000D207DBB200F06DF9F8BDDA05801A012301
:1001F00040001B06C01880185A428018CA0F1043CE
:10020000490007E04908C2071143DA05801A80193E
:100210004008801800F04DF9F8BD61000122511A24
:10022000001BF7E70122D2075140AAE70122D207BB
:100230005040A6E7024670B54A40D30FDB074000A6
:100240002DD04A002AD0010E140E00021202091904
:10025000400A520A8418E50104465443000A120A6F
:100260002E045043A4194219200CC543AA18120C9D
:100270000125AD03521C521912047F39240400D009
:10028000521C104301D44000491EC2B20C06C009E2
:100290002018401C4008802A02D003E0002070BDD6
:1002A00040084000002900DA0020184370BD70B5F6
:1002B00002464A40D50F40004A00ED074008520868
:1002C000002814D0002A12D0C40DD30D4102012001
:1002D000C0055202490A520AE41A091812187D345C
:1002E000914201D3641C00E04900002C01DA002097
:1002F00070BD0023914201D3891A0343400849008D
:100300000028F7D100290AD0914202D10121C90762
:1003100005E0914201D2012101E00121C943E0053C
:10032000C018401900F0C5F870BD0000F0B50C46CB
:100330005C4085B0E40FE40703944C000026640899
:1003400059009446490802460296224321D062464B
:100350000A431ED06200570D4A000E032303550DB9
:10036000012402462C492405781B1B0B360B401830
:1003700023432643614600901C46501AB44103D3E0
:100380000098401C009002E0921800985B41002801
:1003900003DA0020014605B0F0BD00200121090567
:1003A0000746864611E064461D46141BB54106D338
:1003B0006546521BB341744607430C43A646CD071E
:1003C00040084908284392185B4105460D43EAD18D
:1003D0001046184313D060461946504071400843F8
:1003E00006D06046101AB34106D20122002306E06F
:1003F00000220123DB0702E00122D24353100098C0
:1004000074460105381C6141029C039D0019694135
:1004100000F090F8BFE70000FD03000010B50022D7
:100420009623114600F04DF810BDC20FD2074000D0
:1004300040080BD0C10D0723DB01C9184002090594
:10044000400A1143C208400711437047002001468B
:100450007047F0B51FB40646002082B00546402420
:10046000019100901BE0019922460F463046FFF7AC
:1004700053FE049A059B801A994110D310461946E1
:10048000224600F017FA361A8F41019722460120C2
:100490000021009F00F00EFA38184D4100902046D0
:1004A000641E0028DFDC019B00982946324607B015
:1004B000F0BD002904DA401C490001D14008400089
:1004C000704770B40024050C05D11024000402D13B
:1004D000002921D01124050E01D100020834050F96
:1004E00001D10001241D850F01D18000A41C00282A
:1004F00001DB4000641C002908D020252E1B0D467E
:10050000F540A14000D001212943084301061B1BEF
:10051000000ADB1D02D5002070BC7047DB051818EF
:1005200080180029F8DA401C4900F5D170BC400859
:100530004000704710B5002B08DA0024401C6141D0
:1005400092185B411A4301D14008400010BDF0B53C
:100550001FB482B005460C0003D0084603F0DAFB56
:1005600002E003F0D7FB20300246009021462846E7
:1005700000F0A0F9049B059A04460F461843114366
:10058000084314D0184610431BD0009840210A1A83
:1005900018460599FFF7C0FD05460E46009A0599D5
:1005A000049800F087F9084305D0012004E02046B4
:1005B000394607B0F0BD0020C11705430E432C4358
:1005C000374300990E986305401A7905E40A002222
:1005D0000C43FD0A0A3002D500200146E9E7010577
:1005E000101969410C9C0D9D00196941FFF7A2FF8C
:1005F000DFE70000F0B507460846584087B0C00F57
:10060000049048000E46590040084908BC1A884129
:1006100005D2384631461E4617460B46024658005C
:10062000400810434CD0300D039040055900400D58
:10063000490D0590401A0290402872DA18030121F2
:10064000000B09050843019004980092002805D08A
:100650000199524200208841009201900298402165
:100660000A1A0199009800F025F905460C466B46D8
:1006700007CB00F02FF9C0197141039A0E0D00232A
:10068000D71756401A467A40164344D0049A002A97
:100690002DD0029A012A039A15DC1205C01A914145
:1006A00001263605001C7141D20F059ED20700932A
:1006B000019202962A462346FFF749FF07B0F0BD94
:1006C00038463146FAE71605224A0F46B218C01AD4
:1006D000B74101210905001C4F4100187F41114617
:1006E00018187941E20F10436D19644113E0E207D5
:1006F0006D0815436408C2071443039A01261205C6
:10070000C01A91413605001C7141CE0740083043A4
:100710004908C01851412A462346FFF70BFFCDE791
:10072000FFE7049801224000C117121A00238B41F1
:1007300004983146C417381AA141EEE730B40124B9
:10074000E407634030BC55E730B40124E40761405E
:1007500030BC4FE70000E0FFF0B51FB488B00B9944
:100760000998002448400999C00F49004908099197
:10077000C0070B990090490049080B910999089806
:10078000A64608431CD00B990A98084318D009982C
:1007900001244000420D4800410D09982405000342
:1007A000000B204309900B980003000B20430B9093
:1007B00050181C494018002201901446104605E0CC
:1007C000002001460DB0F0BD032801DA034600E029
:1007D00003239C46C11A0AAE0AE05F0008ADED5B38
:1007E0004F00F75B7D430027AA187C41491C5B1E24
:1007F0006145F2DD410004AB5A522104120C0A4358
:10080000240C401C0828DFDB0198029000997046F8
:1008100001910090059B049A07990698FFF797FEAF
:10082000D0E700000DFCFFFF4A0009030123090B7C
:100830001B0519430A4B10B5520D9A4202DA0020EB
:10084000014610BD064B34339A4203DC9A1AFFF777
:1008500063FC10BD034BD21800F02CF810BD000053
:10086000FF030000CDFBFFFF10B5002904DB0124CE
:10087000E40740428C412146002B04DB1C46012347
:10088000DB075242A341994200D1904210BD0000C3
:10089000064C0125064E05E0E36807CC2B430C3CD3
:1008A00098471034B442F7D3FFF70CFC807400086B
:1008B000A074000810B5202A04DB0146203A9140BC
:1008C000002010BD914020239C1A0346E3401943A9
:1008D000904010BD10B5202A06DBCB170846203A01
:1008E0001041C1170B4306E00B461341D0402024B2
:1008F000A21A91400843194610BD70B505466C6AAE
:10090000606C50210840002835D1606C01214902FB
:10091000084360642068C0680321890208400028F9
:1009200025D1206A002822D12068006808210840CB
:1009300008281CD12068806804210840800800280D
:100940000DD1206840680C21884321684860606CA4
:10095000FF210131884301210843606407E0606C96
:10096000202108436064A06C01210843A064204654
:1009700000F09CF903E0E06B016B2846884770BDEE
:1009800070B505466C6A606C402108436064A06CD9
:1009900004210843A064204600F08FF970BD70B5B3
:1009A0000446656A284600F087F970BD38B50446EC
:1009B000002500200090206880688007800F0128B3
:1009C0000ED120680068C007C00F002806D120683B
:1009D000C0680121C9030840884201D1012000E01C
:1009E0000020002843D12068806822490840002860
:1009F00001D1012000E00020002809D1606C102105
:100A000008436064A06C01210843A064012038BD44
:100A100020688068012108432168886016491748CA
:100A20000068FFF763FB009002E00098401E009012
:100A300000980028F9D100F023FD05460EE000F0F3
:100A40001FFD401B022809D9606C10210843606417
:100A5000A06C01210843A0640120D8E72068006849
:100A6000C007C00F0121484048400028E7D00020BF
:100A7000CDE700001700008040420F005800002022
:100A800010B5024800F0F0FA10BD0000A8040020E4
:100A900010B504460D49206888420BD20C4A2168E3
:100AA000881A1421FFF722FB8000206408480838C8
:100AB000E0630AE0054A2168881A1421FFF716FB53
:100AC0008000206401480838E06310BD080402403B
:100AD0000800024030B50124056CAC40C56B6C6069
:100AE000046863604468102C04D10468A260046840
:100AF000E16003E00468A1600468E26030BD704713
:100B0000F8B504460D460026002000900121090793
:100B1000A06B884215D0A06B012812D0A06B0228D0
:100B20000FD0A06B03280CD0A06B042809D0A06BB9
:100B3000052806D0A06B062803D0A06B072800D09C
:100B400000BF00BF4020005D012801D10220F8BD98
:100B500001214020015500BF206880680421084021
:100B6000800800287ED14D496868884264D020689A
:100B7000806A2A7801219140084321688862012116
:100B80000907A06B884229D0A06B012826D0A06B52
:100B9000022823D0A06B032820D0A06B04281DD0EE
:100BA000A06B05281AD0A06B062817D0A06B0728C9
:100BB00014D0A868216849694907490F88420DD0B7
:100BC00020684069C008C000216848612068406909
:100BD000297A4907490F0843216848612868102885
:100BE00005D02868112802D0286812284FD12C4837
:100BF00080682968102901D1C90407E029681129F2
:100C000002D10121890501E0012109060843244997
:100C10008860286810283AD1224923480068FFF7E5
:100C200065FA0A214843009002E00098401E0090B7
:100C300000980028F9D12AE02068816A2A780120EA
:100C400090408143206881622868102805D0286878
:100C5000112802D02868122819D111488068296803
:100C6000102900E00EE001D1C90407E0296811292C
:100C700002D10121890501E00121090688430849C3
:100C8000886004E0606C202108436064012600BF96
:100C900000214020015500BF304658E701100000F8
:100CA0000027014040420F00580000200121014A66
:100CB00011707047500000207047704770B50446AF
:100CC00000260025002C01D1012070BD606C002899
:100CD00006D1A064002140200155204600F0CEF846
:100CE000606C1021084000287ED1002EFCD12068C5
:100CF00080680421084080080028F5D1606C8901D3
:100D00008843022108436064206880688007800F60
:100D100001280DD120680068C007C00F002805D148
:100D20002068C06889030840884201D1012000E0A2
:100D3000002000280FD12068C06818218843A168CE
:100D400008432168C86020680069800080086168E5
:100D50000843216808612068C06846490840216846
:100D6000C860A0698003E169C9030843216A490397
:100D70000843616B012902D00121090300E0002131
:100D80000843E16808432169022901D1042100E0F8
:100D900000210843216B490008430543606A01288C
:100DA0000ED1206A002803D101200004054307E08A
:100DB000606C202108436064A06C01210843A0649A
:100DC000FF21C231A06A884203D0E16AA06A0843C9
:100DD00005432068C06828432168C86001210907CD
:100DE000A06B884216D000E03DE0A06B012811D036
:100DF000A06B02280ED0A06B03280BD0A06B042898
:100E000008D0A06B052805D0A06B062802D0A06BE7
:100E100007280DD120684069C008C00021684861DA
:100E200020684069218F4907490F084321684861BC
:100E30002068C06810490840A84208D10020A0647A
:100E4000606C0221884301210843606410E0606CFB
:100E500002218843102108436064A06C01210843EB
:100E6000A064012604E0606C102108436064012640
:100E700030462AE71902FEFFE7FF3F8310B586B030
:100E80000446142101A8FFF771F92D492068884212
:100E900054D100BF2B48806949150843294988610E
:100EA0000846806949150840009000BF00BF00BF98
:100EB00024484069090208432249486108464069BC
:100EC000012149040840009000BF00BF03200190A9
:100ED00002900020039001A90920C00600F0CCF97F
:100EE00019481A49086000204860002117488160AD
:100EF0008021C16049000161890041612021816137
:100F00000902C16100F028F9002801D0FFF7F7FDC0
:100F100000BF0D487830806A000900010A49783125
:100F200088620846806A012108430749783188624F
:100F300000BF00BF0548E063446200BF06B010BDBB
:100F4000002401400010024008000240A8040020D4
:100F5000F8B504460D46164600272068806804212F
:100F600008408008002848D100BF4020005D0128CB
:100F700001D10220F8BD01214020015500BFE069E8
:100F8000012803D02046FFF711FD0746002F35D179
:100F9000606C1B490840FF21013108436064002058
:100FA000A06400BF00214020015500BF1548E16B3F
:100FB00088621548E16BC8621448E16B08631C2025
:100FC0002168086020684068102108432168486053
:100FD0002068C068012108432168C8602268114662
:100FE000403133462A46E06B00F0E8F8206880681C
:100FF000042108432168886000E002273846B9E7E9
:10100000FEF1FFFFFB0800089F09000881090008A6
:1010100070B5044600252120005D022803D004207D
:10102000A06301251EE0206800680E218843216826
:1010300008602068006840084000216808600120BE
:10104000216C8840E16B486001212120015500BFDF
:1010500000212020015500BF606B002802D02046EF
:10106000616B8847284670BD70B50446E06B056823
:10107000206806680420216C8840284000281BD086
:1010800004203040002817D0206800682021084044
:10109000002805D120680068042188432168086081
:1010A0000420216C8840E16B4860E06A002852D03F
:1010B0002046E16A88474EE00220216C88402840A3
:1010C000002823D00220304000281FD0206800686C
:1010D00020210840002808D1206800680A218843A0
:1010E000216808600121212001550220216C8840DF
:1010F000E16B486000BF00212020015500BFA06ABD
:10110000002828D02046A16A884724E00820216CC6
:101110008840284000281ED00820304000281AD0DF
:10112000206800680E218843216808600120216C36
:101130008840E16B48600120A06301212120015516
:1011400000BF00212020015500BF206B002802D0E5
:101150002046216B884770BD70B504460025002CE1
:1011600001D1012070BD02212120015520680568B0
:1011700011480540A16860680843E1680843216997
:10118000084361690843A1690843E16908430543CD
:10119000206805602046FFF77BFC0020A062E0622B
:1011A00020636063A06301212120015500212020DC
:1011B00001550020D6E700000FC0FFFFF8B5044638
:1011C0000D4616461F460020009000BF2020005DFF
:1011D000012801D10220F8BD01212020015500BFC6
:1011E0002120005D01282DD1022121200155002060
:1011F000A0632068006840084000216808603B4602
:10120000324629462046FFF765FCE06A002806D0F2
:10121000206800680E210843216808600BE0206800
:1012200000680A21084321680860206800680421DA
:10123000884321680860206800680121084321680C
:10124000086006E000BF00212020015500BF0220F9
:1012500000900098BFE731B500F012F90546009CF8
:10126000601C002800D0641C00BF00F009F9401B7E
:10127000A042FAD338BD000078B50346002200240E
:101280000020E3E0012696400D6835402C46002CF6
:101290007ED04D68022D02D04D68122D15D1D50893
:1012A000AE001D462035A8595507EE0E0F25B54056
:1012B0000646AE4330465607F60E0D69B540284344
:1012C000D508AD001E46203670511868560003251B
:1012D000B5400646AE4330460D79AD07AD0F56001A
:1012E000B540284318604D68012D08D04D68022D87
:1012F00005D04D68112D02D04D68122D18D1986877
:1013000056000325B5400646AE4330465600CD682C
:10131000B540284398605868012595400646AE437D
:10132000304610264D6835402D09954028435860B9
:10133000D86856000325B5400646AE4330465600F1
:101340008D68B5402843D860012636074D68354082
:10135000B5427AD100BF404DAD69012635433E4EBE
:10136000B5613546AD69ED07ED0F009500BF00BFD3
:101370003A4D9608B600A85995072E0F0F25B5408F
:101380000646AE4330460925ED06AB4203D100E0E8
:101390005BE0002514E0324DAB4201D101250FE0A6
:1013A000304DAB4201D102250AE02F4DAB4201D1B5
:1013B000032505E02D4DAB4201D1042500E00525B4
:1013C0009607360FB5402843244D9608B600A8511D
:1013D000274D28680546A5432846012636044D6852
:1013E0003540B54202D1054625432846204D2860A8
:1013F00068680546A5432846012676044D683540B1
:10140000B54202D1054625432846194D6860A868B3
:101410000546A5432846012636054D683540B542A8
:1014200002D1054625432846114DA860E8680546C7
:10143000A5432846012676054D683540B54202D1C0
:101440000546254328460A4DE860521C0D68D540E4
:10145000002D00D016E778BD0010024008000140C2
:101460000004004800080048000C00480010004834
:1014700000040140002A01D0816100E081627047D0
:1014800001480068704700005400002002464120D7
:10149000805C20282FD100BF4020805C012801D132
:1014A0000220704701234020835400BF24234120A1
:1014B0008354106800684008400013681860106882
:1014C000006801231B0398431368186010680068C4
:1014D00008431368186010680068012318431368F4
:1014E000186020234120835400BF002340208354F0
:1014F00000BF0020D5E70220D3E710B502460B4617
:1015000000214120805C20282ED100BF4020805C3B
:10151000012801D1022010BD01244020845400BFC5
:101520002424412084541068006840084000146856
:101530002060106801680F2424020846A043014679
:1015400018020143106801601068006801242043FC
:101550001468206020244120845400BF00244020CF
:10156000845400BF0020D6E70220D4E770477047BC
:1015700070B504462068856920680668FF20013040
:10158000284000280AD080203040002806D0606C17
:1015900001210843606408022168C86101208002BB
:1015A000284000280AD080203040002806D0606CF7
:1015B000082108436064C8012168C8610120400215
:1015C000284000280AD080203040002806D0606CD7
:1015D00002210843606408022168C861606C0B2125
:1015E0000840002803D0616C204601F0F7FA70BD76
:1015F00070B504462068856920680668606B00281D
:1016000004D0324629462046636B984770BD704728
:1016100010B50446002C01D1012010BD4120005D11
:10162000002805D1002140200155204600F03EF958
:1016300024214120015520680068400840002168AD
:1016400008600F21090660688843216808612068E6
:1016500080680121C903884321688860E068012807
:1016600006D10121C903A06808432168886005E00C
:1016700021218902A068084321688860E068022867
:1016800002D18002216848602068406814490843FC
:10169000216848602068C0680121C9038843216827
:1016A000C860616920690843A1690902084321688B
:1016B000C860216AE0690843216808602068006802
:1016C0000121084321680860002060642021412036
:1016D00001550020206300214220015500209CE795
:1016E0000080000270470000FFB583B004460C9FE5
:1016F0000E9E00254120005D202870D1002F02D0D1
:101700000D98002802D1012007B0F0BD00BF402095
:10171000005D012801D10220F6E70121402001559A
:1017200000BFFFF7ADFE054619230122D103204675
:10173000009501F045FD002801D00320E4E72121B8
:10174000412001554021422001550020606467621C
:101750000D9860850020606300960195204604A9DD
:101760000EC901F01BFC002810D0606C042806D1C3
:1017700000BF00214020015500BF0120C4E700BF89
:1017800000214020015500BF0320BDE7608DFF28E8
:101790000CD9FF20208500200090208DC2B20123AB
:1017A0001B062046049901F0F3FC0BE0608D2085B8
:1017B00000200090208DC2B201235B0620460499D0
:1017C00001F0E6FC00BF2A463146204601F04EFDFE
:1017D000002807D0606C042802D1012094E760E063
:1017E000032091E7616A481C60620878216888627A
:1017F000608D401E6085208D401E2085208D002834
:1018000029D1608D002826D0334600228021204631
:10181000009501F0D5FC002801D0032074E7608D0D
:10182000FF280CD9FF20208500200090208DC2B217
:1018300001231B062046049901F0AAFC0BE0608DF1
:10184000208500200090208DC2B201235B06204637
:10185000049901F09DFC608D0028B4D12A463146E0
:10186000204601F0D6FC002806D0606C042801D187
:10187000012049E7032047E720202168C86120684C
:1018800040680949084021684860202141200155ED
:1018900000214220015500BF4020015500BF00201B
:1018A00032E7022030E7000000E800FE10B586B005
:1018B0000446142101A8FEF759FC1F4920688842FC
:1018C00037D100BF1D4840690121490408431B4925
:1018D000486108464069012149040840009000BF62
:1018E00000BF0320400201901220029001200390CB
:1018F000032004900420059001A90920C006FFF7E9
:10190000BBFC00BF0D48C0690121490508430B49D4
:10191000C8610846C069012149050840009000BF20
:1019200000BF00221146172000F064F8172000F0D5
:1019300055F806B010BD00000054004000100240F1
:101940007047704702480068401C014908607047B2
:101950005400002010B506480068102108430449CF
:101960000860002000F006F800F018F8002010BD14
:101970000020024070B5044600F000FA06467D21C2
:10198000C900FEF7B3FB054600F088FD00222146A2
:10199000501E00F02FF8002070BD000008B500BFF9
:1019A0000D488069012108430B4988610846806918
:1019B000C007C00F009000BF00BF00BF0846C0694D
:1019C000090408430449C8610846C069090408407D
:1019D000009000BF00BF08BD0010024000BFC2065B
:1019E000D20E01219140024A116000BF70470000F1
:1019F00000E100E070B504460D4616462946204633
:101A000001F0AAFD70BD0000F8B5044600260025CF
:101A1000012109042068084088427AD100276048E3
:101A2000C0690903084000280DD100BF5C48C069A7
:101A300008435B49C8610846C06909040840009032
:101A400000BF00BF012757480068FF21013108404F
:101A5000002816D153480068084352490860FFF730
:101A60000FFD064606E0FFF70BFD801B642801D939
:101A70000320F8BD4B480068FF21013108400028D1
:101A8000F1D04748006A0321090208400546002DAD
:101A90002DD060680840A84229D04148006A884398
:101AA00005463F48006A0121090408433C49086291
:101AB0000846006A0121090488433949086208463A
:101AC0000562E807C00F002811D0FFF7D9FC0646D1
:101AD00007E0FFF7D5FC801B3349884201D903207A
:101AE000C7E72F48006A022108400028F1D02C489F
:101AF000006A032109028843616808432849086293
:101B0000012F05D10846C069090488432449C861EA
:101B100000BF2078C007C00F002807D02048006B06
:101B200080088000A16808431D49086302212068DD
:101B30000840022808D11A48006B03210904884391
:101B4000E1680843164908630121890420680840B8
:101B5000884208D11248006B032189048843216917
:101B600008430F490863202120680840202807D136
:101B70000B48006B102188436169084308490863DA
:101B80000121890220680840884207D10448006B7F
:101B900040218843A169084301490863002068E7A0
:101BA00000100240007000408813000070B5044629
:101BB0000D4600266C480068C007C00FA8420ED230
:101BC00069480068400840002843674908600846A3
:101BD0000068C007C00FA84201D0012070BD0221DB
:101BE00020680840022807D160484068F0218843F7
:101BF000A16808435D4948602078C007C00F0028ED
:101C00007ED06068012808D1584800680121490445
:101C10000840002821D10120E0E76068022808D1AF
:101C200052480068012149060840002815D10120CA
:101C3000D4E76068032808D14C48406B01210904AF
:101C40000840002809D10120C8E74848006802215F
:101C50000840002801D10120C0E7444840688008BE
:101C600080006168084341494860FFF709FC064667
:101C7000606801280FD107E0FFF702FC801B3C4998
:101C8000884201D90320A9E7384840680C21084060
:101C90000428F1D134E0606802280FD107E0FFF793
:101CA000EFFB801B3249884201D9032096E72F4879
:101CB00040680C2108400828F1D121E06068032821
:101CC0000FD107E0FFF7DCFB801B2949884201D9CF
:101CD000032083E7254840680C2108400C28F1D1F7
:101CE0000EE007E0FFF7CCFB801B2149884201D9B9
:101CF000032073E71D4840680C2108400028F1D1FB
:101D000019480068C007C00FA8420ED916480068DD
:101D10004008400028431449086008460068C0078E
:101D2000C00FA84201D0012058E7042120680840D4
:101D3000042808D10D484068072109028843E1685A
:101D400008430A49486000F031F808494968F02220
:101D500011400909074A515CC84007490860002042
:101D6000FFF708FE002039E7002002400010024083
:101D700088130000687400085800002001480068BB
:101D8000704700005800002000B5FFF7F7FF054935
:101D90004968072212021140090A034A515CC840EF
:101DA00000BD00000010024078740008F0B589B052
:101DB0002FA001460EC9C06805AC0EC4089030A023
:101DC00001460EC9C06801AC0EC404900024002670
:101DD00000270025002000902D4844680C2020405A
:101DE00000283DD0042804D0082805D00C2836D17E
:101DF00032E02848009036E00F2080042040800C1C
:101E000005A90D5C2248C06A0007000F01A90E5CFD
:101E10000320C003204001210904884206D1314635
:101E20001C48FEF763F96843074613E00320C0032C
:101E300020400321C903884206D131461648FEF7E7
:101E400055F96843074605E031461248FEF74EF95A
:101E500068430746009706E00F48009003E000BF84
:101E60000C48009000BF00BF009809B0F0BD000012
:101E700002030405060708090A0B0C0D0E0F1010CB
:101E80000102030405060708090A0B0C0D0E0F10CA
:101E90000010024000127A00006CDC02F8B5044623
:101EA00000252078C007C00F002872D0FA4840688B
:101EB0000C21084004280CD0F74840680840082846
:101EC00013D1F548406849030840012109048842BC
:101ED0000BD1F148006801214904084000286BD06B
:101EE0006068002868D10120F8BD00BF6068012843
:101EF00007D1E9480068012109040843E649086060
:101F000031E0606800280ED1E3480068012109042F
:101F10008843E14908600846006801218904884334
:101F2000DD4908601FE0606805280ED1DA480068C6
:101F3000012189040843D849086008460068012146
:101F400009040843D44908600DE0D3480068012122
:101F500009048843D04908600846006801218904C3
:101F60008843CD49086000BF6068002812D0FFF7A1
:101F700087FA054606E0FFF783FA401B642801D97B
:101F80000320B1E7C4480068012149040840002843
:101F9000F1D011E0FFF774FA054606E0FFF770FA9A
:101FA000401B642801D903209EE7BB48006801213B
:101FB000490408400028F1D1022120680840022885
:101FC00062D1B54840680C21084000280CD0B248C6
:101FD0004068084008281CD1AF48406849030840C1
:101FE0000121C903884214D1AB480068022108408E
:101FF000002804D0E068012801D0012074E7A64839
:102000000068F82188432169C9000843A249086093
:102010003AE0E068002820D09F480068012108438A
:102020009D490860FFF72CFA054606E0FFF728FAFD
:10203000401B022801D9032056E797480068022177
:1020400008400028F2D094480068F82188432169AC
:10205000C90008439049086016E08F4800684008AE
:1020600040008D490860FFF70BFA054606E0FFF7D0
:1020700007FA401B022801D9032035E7864800688B
:10208000022108400028F2D10821206808400828D1
:1020900031D1E069002817D07F48406A0121084308
:1020A0007D494862FFF7ECF9054606E0FFF7E8F9DD
:1020B000401B022801D9032016E77748406A022115
:1020C00008400028F2D016E07348406A40084000FB
:1020D00071494862FFF7D4F9054606E0FFF7D0F9E9
:1020E000401B022801D90320FEE66B48406A02210A
:1020F00008400028F2D1042120680840042871D14A
:1021000000266548C0698906084000280DD100BF37
:102110006148C06908436049C8610846C06909044C
:102120000840009000BF00BF01265C480068FF2106
:1021300001310840002816D1584800680843574923
:102140000860FFF79DF9054606E0FFF799F9401B87
:10215000642801D90320C7E650480068FF210131F7
:1021600008400028F1D000BFA068012806D14A48E5
:10217000006A01210843484908622BE0A068002852
:102180000CD14548006A40084000434908620846AF
:10219000006A04218843404908621BE0A0680528C2
:1021A0000CD13D48006A042108433B4908620846B7
:1021B000006A01210843384908620BE03648006A8A
:1021C00040084000344908620846006A04218843F8
:1021D0003149086200BFA068002813D0FFF750F90A
:1021E000054608E029E0FFF74BF9401B2C498842DF
:1021F00001D9032078E62848006A02210840002817
:10220000F1D011E0FFF73CF9054607E0FFF738F998
:10221000401B2349884201D9032065E61E48006A15
:10222000022108400028F1D1012E05D11A48C069C9
:10223000310788431849C86100BF10212068084051
:1022400010285FD1606901282CD11348406B04210C
:102250000843114948630846406B012108430E4971
:102260004863FFF70DF9054606E0FFF709F9401B43
:10227000022801D9032037E60748406B02210840B5
:102280000028F2D00448406BF8218843A169C900B6
:1022900008430149486335E00010024000700040E7
:1022A000881300006069401D00280FD17A48406BF8
:1022B00004218843784948630846406BF8218843E5
:1022C000A169C9000843744948631BE07248406B28
:1022D00004210843704948630846406B40084000A9
:1022E0004863FFF7CDF8054606E0FFF7C9F8401B45
:1022F000022801D90320F7E56748406B0221084016
:102300000028F2D1202120680840202852D16248BC
:1023100040680C2108400C280AD05F4840680840FB
:10232000082811D15C4840684903084088420BD115
:102330005948406B01210904084000283AD0206A1E
:10234000012837D00120CFE5206A002819D0524853
:10235000406B0121090408434F494863FFF790F897
:10236000054606E0FFF78CF8401B022801D9032040
:10237000BAE54948406B0121090408400028F1D022
:1023800018E04548406B01210904884342494863ED
:10239000FFF776F8054606E0FFF772F8401B0228C3
:1023A00001D90320A0E53C48406B01210904084005
:1023B0000028F1D1606A00286CD0374840680C21B1
:1023C0000840082864D0606A022847D13248006873
:1023D00001210906884330490860FFF751F8054696
:1023E00006E0FFF74DF8401B022801D903207BE5EA
:1023F000294800680121490608400028F1D100BFA2
:102400002548C06A00090001216B08432249C862BF
:10241000A16AE06A0843204949687B22D2039143BC
:1024200008431D49486000BF0846006801210906AD
:10243000084319490860FFF723F8054606E0FFF74F
:102440001FF8401B022801D903204DE512480068FF
:102450000121490608400028F1D01BE00E48006821
:102460000121090688430C490860FFF709F8054671
:1024700006E0FFF705F8401B022801D9032033E5E9
:10248000054800680121490608400028F1D101E013
:10249000012029E5002027E50010024070B5044620
:1024A0002546681E0949884201D901200CE0681EB2
:1024B000074948610321081F01F04EF80020044934
:1024C000886107200861002070BD0000FFFFFF0049
:1024D00000E000E070477047024600BF3C20805C8F
:1024E000012801D10220704701233C20835400BF02
:1024F00002233D208354106840687023984313687A
:102500005860106840680B6818431368586010687A
:1025100080688023984313689860106880684B68CF
:1025200018431368986001233D20835400BF0023A3
:102530003C20835400BF0020D5E710B50446002C92
:1025400001D1012010BD3D20005D002805D10021F2
:102550003C200155204600F00DF802213D20015598
:10256000211D206801F0C2F801213D200155002005
:10257000E8E7000038B50446012189072068884251
:1025800015D100BF0A48C069012108430849C86144
:102590000846C069C007C00F009000BF00BF0022FE
:1025A00011460F20FFF726FA0F20FFF717FA38BD64
:1025B0000010024001460868C068012210430A6802
:1025C000D06008680068012210430A68106000208B
:1025D0007047F8B504460D46002600BF3C20005D5C
:1025E000012801D10220F8BD01213C20015500BF86
:1025F00002213D20015520688668772130468843B6
:102600000646FF2109023046884306462068866058
:10261000286850283ED00CDC202863D004DC002839
:1026200056D0102868D158E0302860D0402863D1B7
:1026300044E0602838D070280DD001210903401AE9
:1026400002D0401A58D117E020688068C008C00046
:102650002168886051E0EB686A68A968206801F029
:102660009DF82068866877213046884306467720A3
:1026700006432068866040E0EB686A68A9682068C5
:1026800001F08CF8206880680121890308432168E3
:10269000886032E0EA686968206801F09BF85021A0
:1026A000206801F08AF828E0EA686968206801F08B
:1026B000ACF86021206801F080F81EE0EA686968E3
:1026C000206801F087F84021206801F076F814E0D6
:1026D0000021206801F071F80FE01021206801F05E
:1026E0006CF80AE02021206801F067F805E030214D
:1026F000206801F062F800E000BF00BF01213D202A
:10270000015500BF00213C20015500BF00206AE7B1
:10271000704710B50446206800690221084040084F
:1027200000281CD02068C06808404008002816D047
:10273000481F216808610120207720688069800790
:10274000800F002803D02046FFF7E2FF05E0204677
:1027500000F0C3F8204600F0C1F800202077206880
:10276000006904210840800800281DD02068C06846
:1027700008408008002817D0C8432168086102205B
:10278000207720688069032109020840002803D0CF
:102790002046FFF7BDFF05E0204600F09EF82046EA
:1027A00000F09CF80020207720680069082108408C
:1027B000C00800281CD02068C0680840C008002855
:1027C00016D0C84321680861042020772068C069BA
:1027D0008007800F002803D02046FFF799FF05E00F
:1027E000204600F07AF8204600F078F800202077A4
:1027F0002068006910210840000900281DD02068C9
:10280000C06808400009002817D0C8432168086143
:10281000082020772068C0690321090208400028A9
:1028200003D02046FFF774FF05E0204600F055F87E
:10283000204600F053F80020207720680069C00788
:10284000C00F01214840484000280CD02068C068D3
:10285000084048404840002805D0C81E216808614B
:10286000204600F03DF82068006980210840C0093A
:1028700000280BD02068C0680840C009002805D097
:10288000C843216808612046FFF724FE20680069DC
:1028900040210840800900280BD02068C06808400B
:1028A0008009002805D0C84321680861204600F04F
:1028B0001DF82068006920210840400900280BD03D
:1028C0002068C06808404009002805D0C843216836
:1028D00008612046FFF7FFFD10BD704770470000FC
:1028E0000121014A1170704751000020704710B556
:1028F0000446002C01D1012010BDA069002800D0A1
:1029000000E000BF6920005D002805D1002168209B
:102910000155204600F02CF824216920015520683B
:1029200000684008400021680860204601F04CF82B
:10293000012800D1E0E7606A002802D0204600F0BC
:102940007FFF206840680921C902884321684860E8
:10295000206880682A218843216888602068006890
:102960000121084321680860204600F0E1FFC3E729
:1029700010B586B00446142101A8FDF7F7FB1949EC
:10298000206888422BD100BF1748C0690121490443
:1029900008431549C8610846C06901214904084037
:1029A000009000BF00BF00BF0F48406908430E49B8
:1029B000486108464069012149040840009000BF71
:1029C00000BF0C2001900220029000200390049090
:1029D0000120059001A90920C006FEF74DFC06B0B4
:1029E00010BD0000004400400010024000BFFEE7A0
:1029F00010B50848006880690721090208400028CE
:102A000003D00448FEF7B4FD02E00248FEF7F0FDF3
:102A100010BD0000EC04002070B505466C6A20680B
:102A200040680121C9030843216848600020A16B68
:102A30004863E16B48634120005D602806D1202196
:102A4000412001552046FEF791FD02E02046FEF7A9
:102A5000DEFD70BD10B503460A460021D007C00F49
:102A6000002809D0422001434120C05C2824204096
:102A7000282801D0B020014302201040022809D1AB
:102A8000442001434120C05C28242040282801D054
:102A9000B020014304201040042801D1B820014394
:102AA00011201040112801D1902001431220104024
:102AB000122801D12020014312201040122801D1F8
:102AC000402001431868006888431C68206000208B
:102AD00010BD01688969022211404908002902D00D
:102AE00000210268916201688969C907C90F012242
:102AF00051405140002904D101688969114302689D
:102B000091617047F8B50446002700250026002093
:102B100000904120005D28210840282854D12068D9
:102B20008069012109040840070C206880697F2121
:102B300049040840050C206880688605B60D2068A9
:102B4000C068FE2108400090E06802282DD10620D0
:102B50002840F11106221140884216D13546A06C5A
:102B6000401CA064A06C022836D10020A06408207C
:102B70002168C86100BF00214020015500BF2A46DE
:102B800039462046FEF7F3FC26E0009D042120464E
:102B9000FFF760FF00BF00214020015500BF2A461B
:102BA00039462046FEF7E3FC16E004212046FFF7F5
:102BB00051FF00BF00214020015500BF2A46394681
:102BC0002046FEF7D4FC07E008202168C86100BF5A
:102BD00000214020015500BFF8BD000070B504463B
:102BE0000D460021422001553F48E06200206085EB
:102BF000606C284360644120005D282807D0412094
:102C0000005D292803D04120005D2A280BD1032133
:102C10002046FFF71FFF2821412001550020206397
:102C2000324860630DE007212046FFF713FF412083
:102C3000005D602802D02021412001550020206342
:102C4000606320680068012189030840884215D12B
:102C5000206800688843216808602548A16B4863A4
:102C600000BF00214020015500BFA06BFEF7D0F946
:102C7000002838D0A06B416B884734E0206800689A
:102C80000121C9030840884215D1206800688843A3
:102C9000216808601648E16B486300BF00214020AE
:102CA000015500BFE06BFEF7B3F900281BD0E06BC5
:102CB000416B884717E04120005D60280BD120213F
:102CC0004120015500BF00214020015500BF204692
:102CD000FEF74CFC07E000BF00214020015500BF7B
:102CE0002046FEF794FC70BD0000FFFF3130000865
:102CF000192A000870B504460D461A48E062002003
:102D0000206320214120015500214220015500204F
:102D1000606304202840002813D02068406AC1B2B4
:102D2000626A501C60621170208D002809D0208DCD
:102D3000401E2085608D401E6085606C0421084324
:102D4000606407212046FFF785FE10202168C861D6
:102D500000BF00214020015500BF2046FEF7C2FC05
:102D600070BD00000000FFFF70B504460D46202036
:102D70002168C86108202168C86107212046FFF743
:102D800069FE206840680121C90308432168486042
:102D90002068406841490840216848602046FFF7A4
:102DA00098FE20680068012189030840884205D008
:102DB000206800684900084088420BD14120005D2E
:102DC000212803D1A06B0068406802E0E06B006836
:102DD00040686085608D002803D0606C0421084342
:102DE000606404202840002813D02068406AC1B2E3
:102DF000626A501C60621170208D002809D0208DFD
:102E0000401E2085608D401E6085606C0421084353
:102E1000606400202063002142200155002060638F
:102E2000606C00280CD0616C2046FFF7D7FE412073
:102E3000005D282831D129462046FFF75BFF2CE0B2
:102E4000E06A174988420DD00846E06220214120FF
:102E5000015500BF00214020015500BF2046FEF76C
:102E600041FC1AE04120005D22280BD120214120A5
:102E7000015500BF00214020015500BF2046FEF74C
:102E80005FFD0AE020214120015500BF00214020C4
:102E9000015500BF2046FEF754FD70BD00E800FE5E
:102EA0000000FFFF10B504460021422001554120DB
:102EB000005D292811D128214120015521202063BE
:102EC00001212046FFF7C6FD00BF0021402001552B
:102ED00000BF2046FEF735FD14E04120005D2A28A2
:102EE00010D12821412001552220206302212046B3
:102EF000FFF7B0FD00BF00214020015500BF204674
:102F0000FEF71EFD10BD000070B504460D461646C6
:102F10002068806910210840000900283AD015E097
:102F2000681C002812D0002D04D0FEF7A9FA801BDF
:102F3000A8420BD9202141200155002142200155F2
:102F400000BF4020015500BF032070BD206880698C
:102F50002021084040090028E2D010202168C861E3
:102F600020202168C8612046FFF7B3FD2068406833
:102F700009490840216848600420606420214120FC
:102F8000015500214220015500BF4020015500BFDE
:102F90000120DAE70020D8E700E800FEFFB581B0A5
:102FA000044615461E460A9F01204003F2B2C302A2
:102FB00000902046029900F0EBF8394620460B9A23
:102FC00000F054F9002807D0606C042802D10120D9
:102FD00005B0F0BD0320FBE7012E03D1E8B2216864
:102FE000886216E0FF2000022840001221688862F3
:102FF000394620460B9A00F039F9002806D0606C5B
:10300000042801D10120E3E70320E1E7E8B22168C9
:1030100088620B983B46002280210090204600F0F9
:10302000CFF8002801D00320D2E70020D0E700002D
:1030300070B504460D46164600BF4020005D0128CD
:1030400001D1022070BD01214020015500BF102098
:103050002840002834D010203040002830D0608D27
:10306000002825D1E06A4906884202D0E06A8842F9
:1030700008D14120005D282804D129462046FFF7C9
:1030800039FE70E0E06A414988420DD04120005D80
:10309000292809D110202168C8612046FFF719FDB1
:1030A0002046FFF7FFFE5EE010202168C8615AE06D
:1030B00010202168C861606C04210843606452E0FC
:1030C0000420284000281ED00420304000281AD0B8
:1030D000608D00280CD02068406AC1B2626A501C22
:1030E00060621170208D401E2085608D401E6085BD
:1030F000608D002837D1E06A2449884233D02046C9
:10310000FFF7D0FE2FE008202840002808D0082034
:103110003040002804D029462046FFF7F3FC22E087
:103120000220284000281ED00220304000281AD05B
:10313000608D00280CD0616A481C606208782168A4
:103140008862608D401E6085208D401E20850AE0CB
:10315000E06A01210906884202D0E06A002802D113
:103160002046FFF79FFE20202840002807D020207F
:103170003040002803D029462046FFF7F5FD00BF68
:1031800000214020015500BF00205BE70000FFFF49
:10319000F0B50C46002105686968084D2940A50571
:1031A000AD0D1604FF273F043E4035431D43059EE9
:1031B0003543294305686960F0BD0000009800FCB4
:1031C000F8B504460E4617461D4616E0681C002852
:1031D00013D0002D05D0FEF753F90699401AA842E6
:1031E0000BD920214120015500214220015500BF6B
:1031F0004020015500BF0320F8BD206880693040A1
:10320000B04201D1012000E00020B842DED0002011
:10321000F2E770B504460D4616461EE032462946D2
:103220002046FFF771FE002801D0012070BD002D5F
:1032300004D0FEF725F9801BA8420ED9606C20212E
:10324000084360644120015500214220015500BF20
:103250004020015500BF0320E8E720688069202155
:10326000084040090028D9D00020DFE770B50446A7
:103270000D46164621E0324629462046FFF744FE19
:10328000002801D0012070BD681C002815D0002D39
:1032900004D0FEF7F5F8801BA8420ED9606C2021FF
:1032A000084360644120015500214220015500BFC0
:1032B0004020015500BF0320E5E720688069022116
:1032C000084040080028D6D00020DCE70EB50020DA
:1032D0000090019002901E481E490860002048603E
:1032E00000211C488160C16001210161042141610C
:1032F00000218161C1610121016200214162FF2140
:10330000C23181620021C162016301214163FDF785
:10331000D5FC002801D0FDF7F2FB00200090012031
:10332000000301900720029069460A48FDF7E8FB78
:10333000002801D0FDF7E3FB012000906946054815
:10334000FDF7DEFB002801D0FDF7D9FB0EBD000024
:10335000002401405C04002008B500BF0A48406911
:10336000012108430849486108464069C007C00F69
:10337000009000BF00BF002211460920FEF73AFB73
:103380000920FEF72BFB08BD0010024000B587B0F6
:10339000142102A8FCF7EAFE00BF2648406901217B
:1033A000C904084323494861084640690121C9040A
:1033B0000840019000BF00BF00BF1E484069C9001F
:1033C00008431C49486108464069012189050840B5
:1033D000019000BF00BF00BF164840694911084373
:1033E0001449486108464069012149040840019098
:1033F00000BF00BF002220210920C006FEF73AF8D6
:103400000120400302900C4803900020049002A980
:103410000A48FDF731FF2020029001200390002090
:103420000490059002A90920C006FDF725FF07B00A
:1034300000BD0000001002400000211000080048FC
:1034400010B513481349086013484860002111481B
:1034500081600121C1600021016141618161C1611F
:103460000162FEF7D5F8002801D0FDF748FB0021E6
:103470000848FEF70BF8002801D0FDF740FB0021BB
:103480000448FEF73AF8002801D0FDF738FB10BDDC
:1034900000540040EC0400200E09002000B587B065
:1034A0000020039004900590069001900290012066
:1034B000800715490860154848600021124881605E
:1034C000FF21F431C160002101618161FFF735F80E
:1034D000002801D0FDF713FB01200003039003A98E
:1034E0000948FFF776F8002801D0FDF708FB002017
:1034F0000190029001A90448FEF7EEFF002801D0D8
:10350000FDF7FDFA07B000BD3805002080BB0000C4
:1035100010B50E480E490860E120400248600021C5
:103520000B488160C16001610C2141610021816112
:10353000C16101620020064948620846FFF7D7F9D9
:10354000002801D0FDF7DBFA10BD00000044004068
:10355000780500207047000010B5002819DA1A4AD3
:1035600003071B0F083B9B089B00D2588307DC0E08
:10357000FF23A3409A438B071B0E8407E40EA3404E
:103580001A43114B0407240F083CA408A4001A5145
:1035900018E00E4A03231B02D21883089B00D2585E
:1035A0008307DC0EFF23A3409A438B071B0E84077F
:1035B000E40EA3401A43054B032424021B1984087C
:1035C000A4001A5110BD00001CED00E000E100E075
:1035D0007047704710B5FEF7B5F910BD00B599B04A
:1035E00034210CA8FCF7C2FD0020089009900A9035
:1035F0000B901C2101A8FCF7B9FD12200C900120B2
:103600000F901190102010901290022015908103BD
:1036100016910521C9041791012118910CA8FEF7F4
:103620003DFC002801D0FDF76AFA0720089002202F
:10363000099000200A900B90012108A8FEF7B6FA25
:10364000002801D0FDF75BFA2220019000200490B1
:10365000069001A8FEF7D8F9002801D0FDF74FFA2F
:1036600019B000BD194800680121084317490860D6
:1036700008464068164908401449486008460068F2
:10368000144908401149086008460068012189046E
:1036900088430E490860084640683F210904884372
:1036A0000A4948600846C06A00090001C862084625
:1036B000006B09490840054908630846406B40080B
:1036C00040004863002088607047000000100240FE
:1036D0000CB8FF08FFFFF6FEACFEF0FF10B5024885
:1036E000FFF717F810BD00003805002010B50022C4
:1036F0000268244B984206D001239B07984202D0CF
:10370000214B984205D170241346A3431A464B68B7
:103710001A431C4B984212D001239B0798420ED0AB
:10372000194B98420BD0194B984208D0184B98422D
:1037300005D0184B984202D0174B984206D103246B
:1037400024021346A3431A46CB681A438024134627
:10375000A3434C6923431A4602608B68C3620B681B
:103760008362084B984208D0094B984205D0094B18
:10377000984202D0084B984201D10B6903630123A0
:10378000436110BD002C01400004004000200040B7
:1037900000400140004401400048014070B50C4623
:1037A00000218168FF2636020D46B54329461D02D9
:1037B000154325432943816070BD10B50A46002199
:1037C000816870240B46A34319460723134319430A
:1037D000816010BD70B50B46144600210022026ABC
:1037E000056A6D086D0005628169F0260D46B543D6
:1037F0002946250129430A261546B5432A4615467A
:103800001D432A468161026270BD70B50B461446A5
:1038100000210022056A1026B54305628169026A0B
:103820000F2636030D46B543294625032943A02616
:103830001546B5432A461D012A438161026270BDC7
:10384000818CC907C90F002908D001684968012285
:1038500052049143826A1143026851600222416A14
:103860001140002907D001684968D2039143C26A18
:103870001143026851600422416A1140002907D0B7
:103880000168496812049143026B11430268516058
:103890000822416A1140002907D0016849681203D3
:1038A0009143426B1143026851601022416A1140FA
:1038B000002907D00168896812029143826B114385
:1038C000026891602022416A1140002907D00168F6
:1038D000896812029143C26B1143026891604022D1
:1038E000416A1140002915D001684968920391434B
:1038F000026C11430268516001221205016C914271
:1039000008D101684968032252059143426C114372
:10391000026851608022416A1140002907D0016885
:10392000496812039143826C1143026851607047E9
:1039300038B5044600250020E066FDF7A1FD0546E8
:103940001D492068884207D01C492068884203D05E
:103950001B492068884223D120680068082108405C
:1039600008280BD117482B460022890400902046D6
:1039700000F07EF9002801D0032038BD20680068DF
:103980000421084004280BD10E482B4600220905CB
:103990000090204600F06CF9002801D00320ECE7ED
:1039A0002021692001556A20015500BF00216820AF
:1039B000015500BF0020E0E700380140004400400E
:1039C00000480040FFFFFF01FEB504460025102619
:1039D00000270020029001902169A06808436169D6
:1039E0000843E16908430546206800689349084098
:1039F0002843216808602068406803210903884340
:103A0000E168084321684860216AA06908430546C7
:103A1000206880680B210902884328432168886058
:103A200000BF87492068884217D18648006B80070D
:103A3000800F002806D0012808D0022808D00328CB
:103A400008D101E0002607E0022605E0042603E095
:103A5000082601E0102600BF5CE07B492068884210
:103A60001AD17848006B032109040840002808D0C7
:103A700001210904401A08D0401A08D0401A08D180
:103A800001E0002607E0022605E0042603E0082600
:103A900001E0102600BF3DE06C49206888421AD141
:103AA0006848006B032189040840002808D00121E0
:103AB0008904401A08D0401A08D0401A08D101E001
:103AC000002607E0022605E0042603E0082601E0C0
:103AD000102600BF1EE05E492068884201D1002602
:103AE00018E05C492068884201D1002612E05A495A
:103AF0002068884201D100260CE05849206888429D
:103B000001D1002606E056492068884201D10026EE
:103B100000E0102600BF0121C903E069884249D1B5
:103B2000042E20D004DC002E07D0022E32D111E06A
:103B3000082E25D0102E2DD12DE0FEF725F94000BE
:103B400061684908401800906168FCF7CFFA80B2BC
:103B5000029023E061684A08424BD018FCF7C6FA8D
:103B600080B202901AE0FEF721F94000616849082E
:103B7000401800906168FCF7B9FA80B202900DE03D
:103B800061684A0801231B04D018FCF7AFFA80B221
:103B9000029003E000BF0120019000BF00BF324946
:103BA00002980840074602980007400F0743206824
:103BB000C76040E0042E21D004DC002E07D0022E86
:103BC00034D111E0082E26D0102E2FD12FE0FEF791
:103BD000DBF861684908401800906168FCF786FAD4
:103BE00080B22168C86025E061684A081F4BD01880
:103BF000FCF77CFA80B22168C8601BE0FEF7D6F8BB
:103C000061684908401800906168FCF76FFA80B25B
:103C10002168C8600EE061684A080123DB03D01800
:103C2000FCF764FA80B22168C86003E000BF01209D
:103C3000019000BF00BF0198FEBD0000F369FFEFD7
:103C4000003801400010024000440040004800409D
:103C5000004C00400050004000140140001801409A
:103C6000001C01400024F400F0FF000000127A0064
:103C7000FFB581B004460D4617460A9E24E0701C2D
:103C8000002821D0002E05D0FDF7FAFB0499401A38
:103C9000B04219D920680068FF21A131884321680A
:103CA0000860206880684008400021688860202102
:103CB000692001556A20015500BF00216820015587
:103CC00000BF032005B0F0BD2068C0692840A842AD
:103CD00001D1012000E00020B842D0D00020F1E75F
:103CE0000FB41CB50246002007AC00290BD0491EBA
:103CF00001910092064B6A462146069800F0EAF8C8
:103D0000009A002111701CBC08BC04B018470000C8
:103D10000D4600082021020C01D010211046020A95
:103D200001D010460839020901D01046091F820847
:103D300001D01046891E420801D0881E7047081A1B
:103D4000704702E008C8121F08C1002AFAD1704764
:103D50007047002001E001C1121F002AFBD170470B
:103D6000F0B51FB486B00998089A030D00210243EC
:103D700014D05148514A181850430514119801287D
:103D800010981AD0281A401C00264D4F4D49009615
:103D900001910490002812DA444211E011980124A4
:103DA00049A3012801D11098C1430698119A846053
:103DB0000360C26041600BB0F0BD4042E4E70446DE
:103DC000210500203F4A001C51410391029012E05E
:103DD000E00707D032463B4601990098FCF7BCFC4F
:103DE0000191009032463B4610461946FCF7B4FC60
:103DF00006460F466410002CEAD10498039B002865
:103E0000029A0999089806DAFCF7A6FC019B009A29
:103E1000FCF7A2FC05E0FCF789FA019B009AFCF78D
:103E200085FA04460E460022284BFCF71DFD03D8F8
:103E30000020C043014607E00022254B20463146C2
:103E4000FCF7D8FBFCF7F0FC102409E0002C0ADB9F
:103E50000A220023FCF7FDFA079B30321A55641E34
:103E600002460A43F2D11122641C079B121B1C1943
:103E7000119B012B03D0012308430ED10AE0084314
:103E800004D0112010900020119077E71098151A97
:103E90006D1E0BE01098824202DD00236D1C03E0D2
:103EA000824201DA00236D1E002BEED00698119994
:103EB0008260C16030C07EE701FCFFFF104D000052
:103EC000000014400000F03F300000000000F0430C
:103ED0000000E03FFFB597B00646002518E2252810
:103EE00077D100242746FD49049400E00443761C62
:103EF00032780120203A90400842F7D130782A28C1
:103F00000ED00222307801463039092916D804999A
:103F10000A235943303940181443761C0490F1E7C2
:103F2000189802C804911890002904DA012040036F
:103F300004434842049002200443761C30782E2823
:103F400014D1042004437078761C2A2809D11898CB
:103F5000761C80C8189009E00A214F43303FC719EA
:103F6000761C3078014630390929F5D930786C282B
:103F700010D006DC4C281AD068280ED06A2817D139
:103F800004E0742813D07A2812D110E001204005F3
:103F900004430CE00121090501E0032109050C435C
:103FA0007178814203D1012000052418761C761C0B
:103FB0003078119066280BD013DC58287DD009DCAE
:103FC00000287BD04528F6D04628F4D047281AD1BF
:103FD000A5E118E0632835D0642870D0652812D197
:103FE0009DE170286CD008DC6728F1D069287BD06F
:103FF0006E280DD06F2806D1BAE073282ED0752810
:1040000071D0782859D01A9A199990476D1C7EE181
:104010006002400F022809D003280DD00428189808
:1040200001680DD00D60001D189070E11898EA1716
:1040300001680D604A60F6E7189801680D80F2E7A4
:104040000D70F0E718986A4601781172001D1890FB
:104050000020507202A80090012005E0189802C8C4
:10406000189000200091C04361070DD5002101E0A8
:104070000199491C0191B94212DA8142F8DB009A98
:10408000515C0029F4D10BE0002101E00199491CA9
:1040900001918142FADB019A0099895C0029F5D1EE
:1040A000019904981A9B471A21463846199A00F03C
:1040B00097FA0199401945180BE04FE02CE113E005
:1040C0004EE0009800990078491C00911A9A1999BD
:1040D00090470198401E0190401CF2D1214638467D
:1040E0001A9B199A10E137E00A20002100900191F3
:1040F0006002410F022907D0189A01CA1892C2170C
:104100009446032908D00AE01898C01DC108C900C8
:1041100005C91891944607E000B2C21794460429D5
:1041200002D140B2C1178C4600226146944506DA9E
:104130000A460021404291418C462D2102E0210592
:1041400004D52B216A461173012103E0E10701D058
:104150002021F7E7029155E00A200AE0102008E04C
:10416000102000900021042004430191082703E05F
:1041700008200021019100906002410F022907D020
:10418000189A01CA189200229446032908D008E020
:104190001898C01DC108C90005C91891944603E0CC
:1041A00080B2042900D1C0B200210291210729D593
:1041B0001199702906D0009A1021019B4A401A4398
:1041C00005D00EE040216A461173012108E06146E6
:1041D000014306D030216A461173119951730221AF
:1041E0000291009A0821019B4A401A430AD1614674
:1041F000014301D1610705D530216A4611730121C0
:104200007F1E02911199582904D035A10E910DA954
:104210000D910DE037A1F9E76146019B009AFCF78B
:1042200018F90E9B8C469B5C0D9A521E0D921370D2
:1042300061460143F0D10D9805A9081A203001907C
:10424000600703D501200004844300E001270198A2
:10425000874201DD381A00E00020019900904118E2
:10426000029809180498401A0490E00306D42146E5
:104270001A9B199A049800F0B3F94519002706E033
:1042800003A81A9AC05D199990476D1C7F1C02986B
:104290008742F5DBE0030CD521461A9B199A049856
:1042A00000F09EF9451904E01A9A302019999047B8
:1042B0006D1C0099481E00900029F5DC08E00D985F
:1042C0000D990078491C0D911A9A199990476D1C07
:1042D0000199481E01900029F1DC63E109280100E1
:1042E000303132333435363738396162636465666C
:1042F000000000003031323334353637383941422E
:10430000434445460000000000F05AF94519761C68
:104310003078002800D0E2E528461BB0F0BD6007E9
:1043200000D406271898C01DC108C90048680A684B
:104330000831C30FDB071891190001D09CA108E0D8
:10434000210501D59BA104E0E10701D09AA100E07D
:104350009AA1430011985B08109165280CD006DCE7
:10436000452809D046281DD0472841D141E066287C
:1043700018D067283CD13CE00021112F01DB11202F
:1043800000E0781C0191009008A911A8FFF7E8FC53
:10439000139905910021119A15927F1C129801978B
:1043A000009150E00120C00703900120019008A96E
:1043B000009711A8FFF7D4FC139A149905920022D4
:1043C000119B009212981593059A0192002901D031
:1043D000104602E0791C40180190381A01D5019866
:1043E00004E04042401E0090781C0190C01B0290E7
:1043F00043E0012F00DA01270021112F01DD1120F8
:1044000000E038460191009008A911A8FFF7A8FC28
:1044100013990591119A0021129815920091019714
:1044200021070CD40599B94201DB019900E0019103
:10443000012904DD159A491E515C302906D0B84285
:1044400001DA011D05DA0121029115E00199491EE9
:10445000EDE7002805DC0099411800910199091A3F
:1044600003E0019A411C914200DD01910099401A3C
:10447000401C02900120C0070390200706D4029937
:104480000198814202DB0020C0430290002069466F
:10449000C87707AF012103980337C907884224D0A2
:1044A000022011902B201290039800280CDA404231
:1044B00003902D20129007E00A210398FBF716FEC7
:1044C00030317F1E039039701199481E11900029D8
:1044D000F2DC03980028EFD1791E1298087030782A
:1044E000202108404530BF1E387006A8C01BC01DE3
:1044F000039010980078002800D0012001994118FD
:104500000298C0170918039809180498401A401E09
:104510000490E00306D421461A9B199A049800F0EF
:104520005FF8451910980078002803D01A9A199955
:1045300090476D1CE00324D521461A9B199A0498D4
:1045400000F04EF845191CE00098002807DB0099A0
:104550000598884203DD1598405C199901E0199986
:1045600030201A9A904700986D1C401C00900298C9
:10457000401E0290002804D11A9A2E2019999047C3
:104580006D1C0199481E01900029DDDC05E038789A
:104590001A9A7F1C199990476D1C0399481E039025
:1045A0000029F4DC21461A9B199A0498ACE6000015
:1045B0002D0000002B000000200000000000000083
:1045C000F8B5044600251E461746880404D405E0C5
:1045D00039462020B0476D1C641EF9D52846F8BD29
:1045E000FFB50446002581B01E46C80301D530271B
:1045F00000E02027880404D505E038460399B04739
:104600006D1C641EF9D5284605B0F0BD4A68002A25
:1046100006D00A68531C0B6010704868401E486042
:104620007047000098B000209A4908709A490870B5
:104630009A489B4908609B489B4908609B489C4955
:10464000086000209B4908809B4908809B490860BE
:104650009B490860FDF77EF9FEF7C0FFFEF796FE66
:10466000FEF77AFEFEF754FFFEF730FEFEF7E8FE97
:10467000FEF714FFFF22013288499248FCF768FCDC
:104680009148FDF797FF1C2290A111A8FBF755FD5B
:10469000142295A10CA8FBF750FD182297A106A89B
:1046A000FBF74BFD00F0B2F9002000F09DF912215C
:1046B000022000F015FA0123964806C811A800F060
:1046C000B3FA1221042000F00BFA0123914806C826
:1046D0000CA800F0A9FA1221062000F001FA01232B
:1046E0008C4806C806A800F09FFA00F0FFF9CFE05A
:1046F00000240025002600276648007801287DD187
:1047000000201FE06649096809888CB2644909687D
:1047100009680D0C644909680C8063490968891CA3
:10472000614A1160624909680D8061490968891C04
:104730005F4A116036197F1959490968091D584A9D
:104740001160401C8028DDD37002000C594908809C
:104750007802000C5849088056480088FBF75EFE36
:1047600005906D4801686D480068FBF7A0FD039057
:104770006B4801686B480068FBF703FD01906848CF
:1047800001680198FBF793FD02900399FBF752FD36
:1047900004900599FBF74EFD48490860464800889B
:1047A000FBF73CFE05905C4801685C480068FBF73D
:1047B0007EFD03905C4801685C480068FBF7E1FC03
:1047C0000190594801680198FBF771FD0290039927
:1047D000FBF730FD04900599FBF72CFD3849086084
:1047E0002E482F4908602F482F4908602F4830492C
:1047F0000860002027490870FF2200E004E0013231
:1048000026493048FCF7A4FB2348007801283ED114
:104810002A480068FBF709FE0022454B03910290ED
:10482000FBF784FD0490059142A2019100901021B4
:104830004248FFF755FA22480068FBF7F6FD0022D0
:104840003B4B03910290FBF771FD0490059139A257
:104850000191009010213A48FFF742FA26210420E6
:1048600000F03EF901232B4806C80CA800F0DCF943
:104870002721062000F034F90123264806C806A89F
:1048800000F0D2F900F032F900200349087000BFAF
:104890002EE700005000002051000020E805002015
:1048A00020000020E807002024000020E808002065
:1048B000280000202C0000202E00002030000020C6
:1048C000340000205C04002038050020537465701B
:1048D0002D646F776E20566F6C7461676520636F0F
:1048E0006E76657274657200496E70757420566FCD
:1048F0006C74616765205B565D3A20004F7574707B
:10490000757420566F6C74616765205B565D3A2044
:1049100000000000100000203C00002038000020B3
:1049200044000020400000204C00002048000020EF
:1049300000408F40252E326600000000E80900206C
:10494000F8090020F0B503461446802B01DA40290F
:1049500000DBF0BD22480079002805D0002C01D1F1
:10496000012000E000200446012C1BD10846CD1791
:104970006D0F2D18ED10ED01ED181A4E755D0A46FC
:10498000CE17760FB618F610F6008F1B0126BE4024
:104990003543CE17760F3618F610F601F618114F7C
:1049A000BD551AE00846CD176D0F2D18ED10ED011D
:1049B000ED180C4E755D0A46CE17760FB618F61038
:1049C000F6008F1B0126BE40B543CE17760F361872
:1049D000F610F601F618034FBD5500BFB9E7000009
:1049E000000000205C0000200146002007E00029B4
:1049F00001D1002200E0FF22034B1A54401C012287
:104A000092029042F3D370475C00002010B500F092
:104A100065F86420FCF71FFCAE2000F0DFF82020D2
:104A200000F0DCF8102000F0D9F8B02000F0D6F843
:104A3000C82000F0D3F8002000F0D0F8102000F0DB
:104A4000CDF8402000F0CAF8812000F0C7F8FF2020
:104A500000F0C4F8A12000F0C1F8A62000F0BEF8D4
:104A6000A82000F0BBF83F2000F0B8F8A42000F028
:104A7000B5F8D32000F0B2F8002000F0AFF8D52050
:104A800000F0ACF8F02000F0A9F8D92000F0A6F86A
:104A9000222000F0A3F8DA2000F0A0F8122000F0A5
:104AA0009DF8DB2000F09AF8202000F097F88D2088
:104AB00000F094F8142000F091F8AF2000F08EF888
:104AC0000020FFF791FF00F011F800200249088054
:104AD00048800120487110BD000000207047000090
:104AE000014A1080518070470000002010B500245A
:104AF00012E02146B031C8B200F070F8002000F09A
:104B00006DF8102000F06AF8E101054A881880214C
:104B100000F078F8601CC4B2082CEADB10BD00007D
:104B20005C000020FFB581B007461E462A48008879
:104B30006946097A4018802806DA2748408869467D
:104B4000497A4018402802DB002005B0F0BD00245F
:104B500034E0384620386946497A48430019400015
:104B60000399085A0090002523E00098A8400121ED
:104B7000C903084000280BD0174A92781219D1B205
:104B8000154A12785219D0B23246FFF7DBFE0FE019
:104B9000002E01D1012300E000231A460E4B9B7822
:104BA0001B19D9B20C4B1B785B19D8B2FFF7CAFEA0
:104BB0006D1C6846007AA842D7D8641C6846407AC3
:104BC000A042C6D8044800886946097A40180249BC
:104BD00008803846B9E700000000002001B584B025
:104BE0000020C043012104AA0B46009201910290CB
:104BF000002278210248FCF777FD05B000BD0000D7
:104C0000EC0400203EB504460D460021C943A8B27D
:104C10000123402200940291019078210148FCF781
:104C200063FD3EBDEC0400203FB504461D460CE08C
:104C300020782B46029A0199FFF774FF2178884269
:104C400002D0207804B030BD641C20780028EFD159
:104C50002078F7E7000000000000000000000000DE
:104C60000000000000000000001000100010001004
:104C700000100010000000100000000000280028B4
:104C800000280000000000000000000000000000FC
:104C900000240024007C00240048007C00480048D8
:104CA0000000000000380054005000380014005488
:104CB000005400380010000000200054005800305C
:104CC0000028005400140008000000000010002814
:104CD00000280010003400480048003400000000A4
:104CE0000010001000100000000000000000000094
:104CF000000000000008001000200020002000201C
:104D0000002000200010000800200010000800080B
:104D100000080008000800080010002000100038FB
:104D2000001000280000000000000000000000004B
:104D30000000000000100010007C001000100000B7
:104D40000000000000000000000000000000000063
:104D50000000001000100010000000000000000023
:104D6000000000380000000000000000000000000B
:104D70000000000000000000000000100000000023
:104D80000008000800100010001000100020002093
:104D90000000000000380044004400540044004477
:104DA00000440038000000000010003000500010E7
:104DB0000010001000100010000000000038004437
:104DC00000440004000800100020007C00000000E7
:104DD00000380044000400180004000400440038B7
:104DE0000000000000080018002800280048007C8F
:104DF0000008000800000000007C0040004000782F
:104E000000040004004400380000000000380044A2
:104E100000400078004400440044003800000000D6
:104E2000007C00040008001000100020002000207A
:104E300000000000003800440044003800440044F2
:104E400000440038000000000038004400440044E2
:104E5000003C000400440038000000000000000096
:104E60000010000000000000000000100000000022
:104E70000000000000000010000000000000001012
:104E80000010001000000000000C00300040003056
:104E9000000C000000000000000000000000007C8A
:104EA0000000007C00000000000000000000000086
:104EB00000600018000400180060000000000000FE
:104EC000003800440004000800100010000000102A
:104ED0000000000000380044004C0054005C00401A
:104EE00000400038000000000010002800280028C2
:104EF0000028007C004400440000000000780044CA
:104F000000440078004400440044007800000000A1
:104F10000038004400400040004000400044003899
:104F200000000000007000480044004400440044B9
:104F30000048007000000000007C00400040007C41
:104F4000004000400040007C00000000007C004069
:104F50000040007800400040004000400000000099
:104F60000038004400400040005C00440044003829
:104F700000000000004400440044007C0044004461
:104F80000044004400000000003800100010001031
:104F900000100010001000380000000000040004A1
:104FA0000004000400040004004400380000000075
:104FB0000044004800500060005000480048004491
:104FC0000000000000400040004000400040004061
:104FD0000040007C000000000044006C006C0054A5
:104FE0000044004400440044000000000044006409
:104FF000006400540054004C004C004400000000C9
:105000000038004400440044004400440044003898
:105010000000000000780044004400440078004094
:1050200000400040000000000038004400440044FC
:10503000004400440054003800040000007800449C
:10504000004400440078004800480044000000008C
:1050500000380044004000300008000400440038DC
:1050600000000000007C0010001000100010001074
:105070000010001000000000004400440044004400
:105080000044004400440038000000000044004494
:105090000044002800280028001000100000000034
:1050A00000440044005400540054006C00280028C0
:1050B0000000000000440028002800100010002814
:1050C000002800440000000000440044002800289C
:1050D000001000100010001000000000007C000410
:1050E00000080010001000200040007C00000000BC
:1050F0000018001000100010001000100010001028
:1051000000100018002000200010001000100010F7
:10511000000800080000000000300010001000101F
:1051200000100010001000100010003000100028C7
:105130000028004400000000000000000000000003
:10514000000000000000000000000000000000005F
:10515000000000FE00200010000000000000000021
:1051600000000000000000000000000000380044C3
:10517000003C0044004C00340000000000400040AF
:10518000005800640044004400640058000000001F
:105190000000000000380044004000400044003897
:1051A00000000000000400040034004C00440044EF
:1051B000004C0034000000000000000000380044F3
:1051C000007C00400044003800000000000C00108B
:1051D000007C001000100010001000100000000003
:1051E000000000000034004C00440044004C003437
:1051F000000400780040004000580064004400446F
:105200000044004400000000001000000070001086
:10521000001000100010001000000000001000003E
:10522000007000100010001000100010001000E0CE
:10523000004000400048005000600050004800441A
:10524000000000000070001000100010001000109E
:105250000010001000000000000000000078005462
:1052600000540054005400540000000000000000EE
:105270000058006400440044004400440000000062
:10528000000000000038004400440044004400389E
:1052900000000000000000000058006400440044CA
:1052A0000064005800400040000000000034004C42
:1052B00000440044004C00340004000400000000DE
:1052C0000058006400400040004000400000000022
:1052D000000000000038004400300008004400389E
:1052E00000000000002000200078002000200020A6
:1052F00000200018000000000000000000440044EE
:1053000000440044004C0034000000000000000095
:10531000004400440028002800280010000000007D
:1053200000000000005400540054006C00280028C5
:1053300000000000000000000044002800100010E1
:105340000028004400000000000000000044004469
:10535000002800280010001000100060000000006D
:10536000007C0008001000200040007C00000000CD
:105370000018001000100010002000200010001085
:105380000010001800100010001000100010001095
:10539000001000100010001000300010001000106D
:1053A000000800080010001000100030000000008D
:1053B00000000074004C000000000000000000002D
:1053C00000000000000000000000000000000000DD
:1053D00000000000000000000000000000000000CD
:1053E000000000000000000C000C000C000C000C81
:1053F000000C000C000C000C000C000C0000000C59
:10540000000C0000000000000000001B001B001B3F
:10541000001B001B00000000000000000000000056
:1054200000000000000000000000000000008019E3
:10543000801980198019C07FC07F80190033C07F18
:10544000C07F003300330033003300000000000051
:105450000000001E003F807580650074003C001E47
:1054600000078005806580658075003F001E000490
:10547000000400000000007000D840D8C0D880D9D7
:1054800000730006000C801BC036C066C046C00614
:1054900080030000000000000000001E003F0033F9
:1054A00000330033001E000CC03CC0668063806186
:1054B0008063C03E801C0000000000000000000C63
:1054C000000C000C000C000C0000000000000000AC
:1054D00000000000000000000000000000000000CC
:1054E000800000010003000600060004000C000C10
:1054F000000C000C000C000C000400060006000369
:1055000000018000002000100018000C000C0004B6
:105510000006000600060006000600060004000C57
:10552000000C0018001000200000000C002D003FAF
:10553000001E00330000000000000000000000001A
:10554000000000000000000000000000000000005B
:105550000000000C000C000C000CC0FFC0FF000C91
:10556000000C000C000C0000000000000000000017
:10557000000000000000000000000000000000002B
:1055800000000000000000000000000C000C0004FF
:1055900000040008000000000000000000000000FF
:1055A000000000000000001E001E000000000000BF
:1055B00000000000000000000000000000000000EB
:1055C00000000000000000000000000000000000DB
:1055D0000000000C000C00000000000000000003B0
:1055E000000300030006000600060006000C000C85
:1055F000000C000C0018001800180000000000004B
:105600000000001E003F0033806180618061806D7A
:10561000806D8061806180610033003F001E00006A
:105620000000000000000006000E001E00360026EC
:10563000000600060006000600060006000600063A
:1056400000060000000000000000001E003F807304
:1056500080618061800100030006000C00180030AA
:105660000060807F807F0000000000000000001CC0
:10567000003E006300630003000E000E0003800183
:10568000800180618073003F001E00000000000068
:1056900000000006000E000E001E001E0016003660
:1056A00000360066807F807F00060006000600004E
:1056B000000000000000007F007F006000600060CC
:1056C000006E007F80638001800180618073003FF5
:1056D000001E0000000000000000001E003F80339C
:1056E00080610060006E007F8073806180618061F6
:1056F0008033003F001E0000000000000000807F9B
:10570000807F80010003000300060006000C000CEF
:10571000000C00080018001800180000000000002D
:105720000000001E003F8063806180610021001E38
:10573000003F8061806180618061003F001E000049
:10574000000000000000001E003F007380618061C7
:1057500080618073803F801D800180610073003F05
:10576000001E00000000000000000000000000001B
:105770000000000C000C0000000000000000000011
:105780000000000C000C0000000000000000000001
:105790000000000000000000000C000C00000000F1
:1057A000000000000000000C000C000400040008D1
:1057B000000000000000000080008003000E0038A0
:1057C00000600038000E8003800000000000000030
:1057D0000000000000000000000000000000807FCA
:1057E000807F00000000807F807F000000000000BC
:1057F00000000000000000000000000000000000A9
:1058000000400070001C000780010007001C0070B1
:105810000040000000000000000000000000001F29
:10582000803FC071C060C000C00180030007000E4F
:10583000000C000C0000000C000C00000000000038
:105840000000001E003F803180718063806F806D9A
:10585000806D806F806700600032003E001C000099
:10586000000000000000000E000E001B001B001BCB
:10587000001B80318031803F803F8031C060C0603C
:10588000C0600000000000000000007C007E00639B
:10589000006300630063007E007E006380618061BE
:1058A0008063007F007E0000000000000000001EFA
:1058B000003F803180610060006000600060006037
:1058C000006080618031003F001E00000000000089
:1058D0000000007C007F00638063806180618061E4
:1058E00080618061806100630063007E007C000055
:1058F000000000000000807F807F0060006000608A
:105900000060007F007F0060006000600060807FBA
:10591000807F0000000000000000807F807F00602A
:10592000006000600060007F007F00600060006039
:105930000060006000600000000000000000001E29
:10594000003F8031806100600060006080638063A0
:10595000806180618031803F001E000000000000F7
:105960000000806180618061806180618061807FF2
:10597000807F8061806180618061806180610000E2
:10598000000000000000003F003F000C000C000C75
:10599000000C000C000C000C000C000C000C003F74
:1059A000003F000000000000000080018001800135
:1059B000800180018001800180018001806180611F
:1059C0008073003F001E0000000000000000C06067
:1059D0008061006300660066006C0078007C0066F1
:1059E0000066006380618061C0600000000000000C
:1059F0000000006000600060006000600060006007
:105A000000600060006000600060807F807F0000B8
:105A1000000000000000C071C071C07BC07AC06A85
:105A2000C06AC06EC064C060C060C060C060C0605A
:105A3000C06000000000000000008071807180796B
:105A400080798079806D806D806D806580678067EA
:105A50008067806380630000000000000000001E7B
:105A6000003F00338061806180618061806180617E
:105A7000806180610033003F001E000000000000D4
:105A80000000007E007F80638061806180618063B0
:105A9000007F007E00600060006000600060000029
:105AA000000000000000001E003F003380618061A4
:105AB0008061806180618061806580670033803FA4
:105AC000401E0000000000000000007E007F806398
:105AD000806180618063007F007E006600630063F8
